:020000020000FC
:2000000006C00074DEE00004DEF6303ADEC001D4DEF6303A06800074D6A5D0040600003472
:20000800C605D5040080003410804A041000683A2008923A300C943A00A880142149883A8A
:200010002189883A11000015F800283ADEFFFC04DC800215DC400115DC00001504400034F9
:200018000400003404800034DFC003158402DDC48C40F2049484C984894000038100000383
:20002000018001C484000044000003008C40004484BFF91E0005883ADFC00317DC80021750
:20002800DC400117DC000017DEC00404F800283A3005883A30000A26298F883A00E20114C9
:2000300018C0003718FFFFEC183FFC2629400044293FFFC700E200141900003529FFF71ECA
:20003800F800283A00A2001410C0003718A0000C103FFC261805D43A108000443080012E7E
:200040003005883A0080060E2889883A2940004428FFFFC500E2001418C00037217FFB1E4C
:20004800F800283AF800283A01800034010000342105D5043185D504DEFFFF04310DC83A4C
:20005000000B883ADFC0001500001680000012400009883A000D883A000B883A000004C0FC
:200058001009883A000016C000001A01DEFFFE04000B883ADC000015DFC001152021883A67
:2000600000002900008000341105D31720800F1710000126103EE83A8009883A00003AC0F1
:2000680020C000CC2005883A1800362631FFFFC4300033262811883A2007883A0000030608
:2000700039FFFFC439BFFFE030002D1E18C000441A3FFFC5198000CC303FF91E3900013095
:200078002000221E29003FCC200C923A3A0004303108B03A200C943A310CB03A40000E1EBE
:200080003A3FFC044010D13A420000444010913A1A11883A198000151980011519800215F1
:2000880018C0040419BFFF1540FFFA1E3900030C39C003CC20000D261809883A21000104C9
:200090003911C83A1A11883A21BFFF1542000128403FFA1E393FFF042008D0BA39C000CC2F
:2000980021000044200890BA1907883A3800042619CF883A18C00044197FFFC538FFFD1EB9
:2000A000F800283A2007883A300F883A003FD306DEFFF70400800034DDC0071515C5D317DB
:2000A800DD400515DD000415DCC00315DFC00815DD800615DC800215DC400115DC0000158D
:2000B0002029883A282B883A04C00044BC80521790000D2694000117847FFFC488000A1686
:2000B80084000044802090BA9421883AA80011268080401715400F268C7FFFC488BFFFD853
:2000C000843FFF04103FF91EDFC00817DDC00717DD800617DD400517DD000417DCC003171A
:2000C800DC800217DC400117DC000017DEC00904F800283A908001178180001710BFFFC4A5
:2000D0001440152680000015303FEB269C46983A90806217958001171884703A1000061E88
:2000D800303EE83A9080011715BFD81EB880521714BFE126003FD5069080631781002017AF
:2000E0001886703A1800061E200B883AA009883A303EE83A003FF30694400115003FEA0643
:2000E800303EE83A003FEF06F800283ADEFFFE04DC000015DFC001152021883A00003A8098
:2000F0008005883A003FFF060101010101010101020201010202020202020202020202023F
:2000F800020202020303030203030303030303030404040304040404050505040505050577
:200100000606060607060606070707070707070707070707080808070808080808080808FB
:200108000808080808080808090908080909090909090909090909090A0A0A0A0A0A0A0AB9
:200110000A0A0A0A0B0A0A0A0B0B0B0B0B0B0B0B0B0B0B0B0C0C0C0C0C0C0C0C0C0C0C0C6A
:200118000D0D0C0C0D0D0D0D0D0D0D0D0D0D0D0D0E0E0E0E0E0E0E0E0E0E0E0E0E0E0E0E19
:200120000F0F0F0F0F0F0F0F0F0F0F0F10100F0F10101010101010101010101011111110CA
:20012800111111111111111112121111121212121212121212121212131313131313131379
:2001300013131313141414131414141414141414151515151515151516161615161616161D
:200138001616161617171717171717171717171718181817181818181818181818181818BC
:200140001919181819191919191919191A1A1A191A1A1A1A1A1A1A1A1B1B1B1A1B1B1B1B67
:200148001C1C1B1B1C1C1C1C1D1D1C1C1D1D1D1D1D1D1D1D1E1E1E1D1E1E1E1E1F1E1E1EF7
:200150001F1F1F1F1F1F1F1F20202020202020202121202021212121212121212222222285
:20015800222222222322222223232323232323232424242424242424252424242525252519
:200160002525252526262625262626262626262627272626272727272727272728272727B5
:20016800282828282828282828282828282828282929292929292929292929292929292967
:200170002A2929292A2A2A2A2A2A2A2A2A2A2A2A2A2A2A2A2A2A2A2A2B2A2A2A2B2B2B2B2D
:200178002B2B2B2B2B2B2B2B2B2B2B2B2B2B2B2B2C2C2C2B2C2C2C2C2C2C2C2C2C2C2C2CF8
:200180002C2C2C2C2C2C2C2C2D2C2C2C2D2D2D2D2D2D2D2D2D2D2D2D2D2D2D2D2D2D2D2DCA
:200188002D2D2D2D2D2D2D2D2E2E2E2E2E2E2E2E2E2E2E2E2E2E2E2E2E2E2E2E2E2E2E2E9F
:200190002E2E2E2E2E2E2E2E2F2F2E2E2F2F2F2F2F2F2F2F2F2F2F2F2F2F2F2F2F2F2F2F79
:200198002F2F2F2F2F2F2F2F2F2F2F2F302F2F2F3030303030303030303030303030303056
:2001A000303030303030303030303030303030303131303031313131313131313131313131
:2001A80031313131313131313131313131313131313131313131313132323232323232320F
:2001B0003232323232323232323232323232323232323232323232323232323233333232ED
:2001B8003333333333333333333333333333333333333333333333333433333334343434C2
:2001C00034343434343434343434343434343434343434343434343434343434343434349F
:2001C800353534343535353535353535353535353535353535353535363535353636363674
:2001D000363636363636363636363636363636363636363637373737373737373737373743
:2001D800373737373737373738383837383838383838383839383838393939393939393907
:2001E0003A3A39393A3A3A3A3B3B3B3B3B3B3B3B3C3C3C3C3C3C3C3C3D3D3D3D3E3D3D3D90
:2001E8003E3E3E3E3F3F3E3E3F3F3F3F4040404041414040414141414242424142424242F4
:2001F000434343434443434344444444454545454646454547464646484747474949484844
:2001F800494949494A4A4A494A4A4A4A4B4B4A4A4B4B4B4B4C4C4B4B4C4C4C4C4D4D4D4D8C
:200200004E4E4D4D4F4F4F4E4F4F4F4F504F4F4F50505050505050505050505050505050F4
:200208005151515051515151515151515151515152515151525252525252525253525252A9
:2002100053535353535353535454535354545454545454545555545455555555555555554E
:20021800565655555656565656565656565656565656565656565656565656565756565607
:200220005757575757575757575757575757575757575757585857575858585858585858D4
:200228005858585858585858585858585959595859595959595959595959595959595959A3
:20023000595959595A5A5A5A5A5A5A5A5A5A5A5A5A5A5A5A5A5A5A5A5A5A5A5A5B5B5A5A70
:200238005B5B5B5B5B5B5B5B5B5B5B5B5B5B5B5B5B5B5B5B5C5C5B5B5C5C5C5C5C5C5C5C3C
:200240005C5C5C5C5C5C5C5C5C5C5C5C5C5C5C5C5C5C5C5C5D5D5C5C5D5D5D5D5D5D5D5D14
:200248005D5D5D5D5D5D5D5D5D5D5D5D5D5D5D5D5D5D5D5D5E5D5D5D5E5E5E5E5E5E5E5EED
:200250005E5E5E5E5E5E5E5E5E5E5E5E5E5E5E5E5E5E5E5E5F5F5E5E5F5F5F5F5F5F5F5FC4
:200258005F5F5F5F5F5F5F5F5F5F5F5F5F5F5F5F5F5F5F5F6060606060606060606060609A
:20026000606060606060606060606060606060606160606061616161616161616161616171
:2002680061616161616161616161616161616161616161616262626262626262626262624A
:2002700062626262626262626262626262626262626262626262626262626262626262622E
:20027800626262626262626263626262636363636363636363636363636363636363636311
:200280006363636363636363636363636363636364646464646464646464646464646464EE
:200288006464646464646464646464646464646464646464656565656565656565656565CA
:2002900065656565656565656565656565656565666666666666666666666666666666669E
:2002980066666666666666666666666666666666666666666666666667676766676767677F
:2002A000676767676767676767676767676767676767676767676767686868686868686856
:2002A80068686868686868686868686868686868686868686968686869696969696969692D
:2002B00069696969696969696969696969696969696969696A6A69696A6A6A6A6A6A6A6A04
:2002B8006A6A6A6A6A6A6A6A6A6A6A6A6A6A6A6A6B6B6B6A6B6B6B6B6B6B6B6B6B6B6B6BD7
:2002C0006B6B6B6B6B6B6B6B6C6C6B6B6C6C6C6C6C6C6C6C6C6C6C6C6C6C6C6C6D6C6C6CA7
:2002C8006D6D6D6D6D6D6D6D6D6D6D6D6E6E6D6D6E6E6E6E6E6E6E6E6E6E6E6E6E6E6E6E64
:2002D0006F6F6F6F6F6F6F6F6F6F6F6F6F6F6F6F6F6F6F6F706F6F6F707070707070707025
:2002D800707070707070707071717171717171717473737253767575575655545B5A5958C3
:2002E0004443425C484746454C4B4A495251504D5F5E5D53403F3E3D4E4D4C4B6160504F5C
:2002E8004A49484763624C4B4645443B3A6564474443423B3B3967666867414077767574B9
:2002F0007B7A79783E3B39387271693F767574737A7978777E7D7C7B3D3C387F71706F3E2F
:2002F800807F7C7B378382816E3C3B3A7D7C726F868584833937888774726D3A88877E7D12
:20030000368B8A89706C3938767473718D8C8B7E3837368E73716F6B8E7E79763591908FFB
:200308006F6B373678757370917F7E7B3594939272706E367B7A787595947F7D6E353496CD
:200310007472706F7D7C7A779897967F6F6D34337977747199807F7C3B33329A71706E6DB8
:200318007B797673319C9B806E6C3B32787673709C9B807B3A3931307572706D30807A787C
:2003200075726F3A807C7A776F6E382F797774712E81807C6E3938367876747181807B799F
:200328003736342D706E6D3978767573807E7B7A342D2C817775737081807D7A35342C2B05
:2003300074726F38817C7977726F2B2A7C797674712A29817B787673712928817B787573DF
:2003380082817E7D727028277A7775747027827D7A7774722683827C737136277E7C79765E
:20034000352625837976737124837E7B703534257B7875722423847D7A78757233847F7D7B
:20034800777574717F7C7A797024858477767471857F7C79737032247B78767485807F7E56
:20035000625F32867573726F7F7D7B782524868063625F5E7574726F7E7D7A772386817F2C
:200358005F2C2524646361607674726E7F7C7A7722218680262524235E5D392C71636260E2
:2003600076757473807E7C7925248786302C2B26605F3938716564637B79757387867F7E02
:20036800372F2B265A3A3938605E5C5B737265647A787574817F7D7B2A26878637362F2B9F
:200370005D5B393861605F5E66656462777472717F7D7A782687868138372E2A3F3E3D3C08
:2003780043424140474645445C5B49486563615E77747371817E7C792A2926873E3C3B3AC8
:200380004241403F464544434A4948475C5B594B6261605D767371647E7C7978292687804D
:200388003A39342D41403E3B45444342494847465A594B4A615F5E5C76656462807D7B7808
:20039000292826873938342C3E3D3C3A43424140484645444C4B4A495C5B59587563626044
:200398007D7B78772587837F373428263B3A39383F3E3D3C44434241494746455B5A584A9F
:2003A000615F5E5D7A77646387827F7D2827259C3938372B3F3D3C3A5A494840605F5E5C8C
:2003A8007C7A79769A87827F26259C9B34332A273B3A373641403E3D4544434257484746DC
:2003B0005F5D5B59636261607E7C7976999887823626259A3C3B39384443413D5E5D5C45B0
:2003B800636261608887817E292598973A3736353F3D3C3B454341406463615F8783817DAD
:2003C00024979688373534253C3B393861403F3E8380636296958887373624233D3B3A39D8
:2003C8008380643F272395887F3D3B39948882808223229521948884848226222094938880
:2003D000828125211F93888483812520241F93889288848383821E931D9288848884231E80
:2003D800221D1C929291888383211C1B1A9189888988201B1A1991901890891F8F891E1914
:2003E0001D18179089178F8989168F8E1A16158E8D897E1B7C1915148C8A897D1814138D85
:2003E8008B8A7C7B7A13128C128B8A7B89887A797978118A6564111069686766100F7877F6
:2003F00062616012666564636B6A69687776756C14110F0E605F5E5D6F6E6D6C737271707A
:2003F8000E0D75745B14131071705D5C0F0D737216141210655B5A590F0E0C6B1514121115
:20040000655958570E0C0B6B16141310665756170C0B0A6C120F0E0D42161513464544430D
:200408004A4948474E4D4C4B5E56554F0B0A6C660F0E0D0C141211103D19181541403F3E43
:20041000665E55540B0A096C0F0E0D0C141311103A17161554533C3B6C665E560C0B0A090D
:20041800100F0E0D141312113719181653523938086C5E560C0B0A09100F0E0D15131211D5
:200420003420181752513635655D56550908076C0D0C0B0A11100F0E171614125150333275
:20042800655D56550908076C0D0C0B0A11100F0E16151312301B1A193E3D3C31504F403F83
:20043000655D56550807066C0C0B0A09100F0E0D141312111A19161539382F2E4F4E3B3AD2
:200438005D56555107066C650B0A09080F0E0D0C131211102D1A18153736353452514E4D43
:20044000655D56550706056C0B0A09080F0E0D0C13121110171615143332311955524D4CCA
:20044800046C5D56080706050C0B0A09100F0E0D141312112F181715524C4B305D565553C2
:2004500005046C65090807060D0C0B0A11100F0E151413122E1A181654534B4A63625D56B0
:20045800036B6665070605040B0A09080F0E0D0C13121110171615142E2D26193231302FE1
:20046000363534333A3938373E3D3C3B5655493F605E5D576867626104036A6908070605AB
:200468000C0B0A09100F0E0D1413121118171615424140195C5B574861605F5D036A696285
:20047000070605040B0A09080F0E0D0C13121110171615142C221918574746455B5A595850
:20047800026B6261060504030A0908070E0D0C0B1211100F1615141346451817025B5A5970
:20048000060504030A0908070E0D0C0B1211100F16151413302F1817343332313837363530
:20048800433B3A395B5A454405040302090807060D0C0B0A11100F0E1514131226181716D4
:200490003F3E3D3C03434240070605040B0A09080F0E0D0C13121110171615142E2D2C18E1
:200498004241402F060544430A0908070E0D0C0B1211100F16151413313018173F3E333266
:2004A00047464540090807480D0C0B0A11100F0E151413121F1E17163C3635344A493E3DBD
:2004A8000C0B0A09100F0E0D1413121120171615292827213B3A38370D0C0B3C11100F0E09
:2004B000151413122A232216392D2C2B11103B3A151413122F2E25243C3837301514133DBE
:2004B8001918171627261B1A34333231173E36351B1A19181F1E1D1C2822212031302F299A
:2004C0003635333222213837262524232A2928272E2D2C2B263A392F2A2928272E3B2D2C88
:2004C8003231302F0000343300000000000016140000167C000016E4000000000000000035
:2004D00000000000000000000000000000000000000000000000000000000000000000000C
:2004D800000000000000000000000000000000000000000000000000000000000000000004
:2004E0000000000000000000000000000000000000000000000000000000000000000000FC
:2004E8000000000000000000000000000000000000000000000000000000000000000000F4
:2004F0000000000000000000000000000000000100000000ABCD330EE66D12340005DEECCA
:2004F8000000000B00000000000000000000000000000000000000000000000000000000D9
:200500000000000000000000000000000000000000000000000000000000000000000000DB
:200508000000000000000000000000000000000000000000000000000000000000000000D3
:200510000000000000000000000000000000000000000000000000000000000000000000CB
:200518000000000000000000000000000000000000000000000000000000000000000000C3
:200520000000000000000000000000000000000000000000000000000000000000000000BB
:200528000000000000000000000000000000000000000000000000000000000000000000B3
:200530000000000000000000000000000000000000000000000000000000000000000000AB
:200538000000000000000000000000000000000000000000000000000000000000000000A3
:2005400000000000000000000000000000000000000000000000000000000000000000009B
:20054800000000000000000000000000000000000000000000000000000000000000000093
:2005500000000000000000000000000000000000000000000000000000000000000000008B
:20055800000000000000000000000000000000000000000000000000000000000000000083
:2005600000000000000000000000000000000000000000000000000000000000000000007B
:20056800000000000000000000000000000000000000000000000000000000000000000073
:2005700000000000000000000000000000000000000000000000000000000000000000006B
:20057800000000000000000000000000000000000000000000000000000000000000000063
:2005800000000000000000000000000000000000000000000000000000000000000000005B
:20058800000000000000000000000000000000000000000000000000000000000000000053
:2005900000000000000000000000000000000000000000000000000000000000000000004B
:20059800000000000000000000000000000000000000000000000000000000000000000043
:2005A00000000000000000000000000000000000000000000000000000000000000000003B
:2005A800000000000000000000000000000000000000000000000000000000000000000033
:2005B00000000000000000000000000000000000000000000000000000000000000000002B
:2005B800000000000000000000000000000000000000000000000000000000000000000023
:2005C00000000000000000000000000000000000000000000000000000000000000000001B
:2005C800000000000000000000000000000000000000000000000000000000000000000013
:2005D000000000000000000000000000000013280000132800000000000000000000000095
:2005D800000000000000000000000000000000000000000000000000000000000000000003
:2005E0000000000000000000000000000000000000000000000000000000000000000000FB
:2005E8000000000000000000000000000000000000000000000000000000000000000000F3
:2005F0000000000000000000000000000000000000000000000000000000000000000000EB
:00000001FF
